:020000040800F2
:100000007045002029020008513F0008D13D00083A
:100010004D3F0008AD0400085D6B000800000000C3
:10002000000000000000000000000000653F000824
:100030004905000800000000613F0008693F000812
:10004000430200084302000843020008430200087C
:10005000430200084302000843020008430200086C
:10006000430200084302000843020008430200085C
:10007000430200084302000843020008430200084C
:10008000430200084302000843020008430200083C
:10009000430200084302000843020008430200082C
:1000A000430200084302000843020008430200081C
:1000B0002D400008430200084302000843020008E4
:1000C00043020008430200084302000843020008FC
:1000D00043020008430200086D4300084302000881
:1000E00043020008430200084302000843020008DC
:1000F00043020008430200084302000843020008CC
:1001000043020008430200084302000843020008BB
:1001100043020008430200084302000843020008AB
:100120003D0500084302000843020008430200089E
:10013000430200084302000843020008430200088B
:10014000430200084302000843020008553F00082C
:10015000430200084302000843020008430200086B
:10016000430200084302000843020008430200085B
:100170004302000843020008430200080000000098
:10018000430200084302000800F002F800F03CF8C7
:100190000AA090E8000C82448344AAF10107DA45E2
:1001A00001D100F031F8AFF2090EBAE80F0013F0F8
:1001B000010F18BFFB1A43F001031847B06D000090
:1001C000D06D0000103A24BF78C878C1FAD8520721
:1001D00024BF30C830C144BF04680C6070470000C1
:1001E0000023002400250026103A28BF78C1FBD840
:1001F000520728BF30C148BF0B6070471FB506F0DB
:1002000098FE1FBD10B510BD00F0D0F81146FFF7E5
:10021000F5FF06F0A5FC00F0EEF803B4FFF7F2FFDF
:1002200003BC00F0F5F80000094880470948004782
:10023000FEE7FEE7FEE7FEE7FEE7FEE7FEE7FEE796
:10024000FEE7FEE704480549054A064B70470000F3
:100250001940000889010008703F00207045002007
:10026000704100207041002053EA020C00F06980C8
:100270002DE9F04B4FF00006002B1FBFB3FA83F5BA
:1002800003FA05F424FA05F65E4012BF1643B2FAEB
:1002900082F502FA05F4C5F120051EBF22FA05FC1D
:1002A00044EA0C04203556EA044C4FEA144418BFC3
:1002B000641C4FF000084FF00009904271EB030CF2
:1002C00039D3002919BFB1FA81F701FA07F6B0FA5C
:1002D00080F700FA07F6C7F120071EBF20FA07FCD7
:1002E00046EA0C062037B6FBF4FCA7EB0507103FE7
:1002F00007F01F0BCBF120062CFA06F60CFA0BFBCD
:1003000044BFB3460026202FA4BF5E464FF0000B2B
:100310005BEA060C08BF4FF0010B19EB0B0948EB29
:100320000608ABFB027C06FB02CC0BFB03CCC01B1C
:1003300071EB0C01C1E70B46024641464846BDE859
:10034000F08B13B5084318BF4FF0FF300146AFF3F1
:100350000080BDE81C4070474FF0000200B5134616
:1003600094469646203922BFA0E80C50A0E80C50D5
:10037000B1F12001BFF4F7AF090728BFA0E80C5086
:1003800048BF0CC05DF804EB890028BF40F8042B7F
:1003900008BF704748BF20F8022B11F0804F18BFEC
:1003A00000F8012B7047704770477047754600F0A2
:1003B0002BF8AE4605006946534620F007008546F7
:1003C00018B020B5FFF73EFFBDE820404FF0000613
:1003D0004FF000074FF000084FF0000BAC46ACE8C0
:1003E000C009ACE8C009ACE8C009ACE8C00921F01C
:1003F00007018D46704710B50446AFF300802046D4
:10040000BDE81040FFF709BF00487047F800002022
:1004100001491820ABBEFEE726000200704700002D
:100420000146806B036C026C13F0500F08D0D206AB
:1004300048BF00F043B9806BC26C0846104700BF4C
:1004400042F40071016401688A6812F0405F01D0D3
:1004500000F020B9027E002AFAD1CA6A12F4700FA5
:1004600002D08A685205F3D44A6822F020024A601A
:10047000016C21F480710164016CC90448BF00F073
:1004800009B9016C41F00101016400F003B90000F9
:10049000806B40210164416C41F00401416400F033
:1004A0000DB90000806B00F0FFB80000FEE700000F
:1004B000002070470020704710B543F2C854C2F2C4
:1004C000000440F6C851C2F200012046002204F0A8
:1004D00021F940F2C851C2F20001204604F00CF9A3
:1004E000002010BD10B543F2C854C2F2000401460A
:1004F000204604F001F9204604F0D8F8002010BD91
:100500000020704710B543F2C852C2F20002D2F880
:10051000BC22D2F81432002B1CBF012010BD43F2C4
:10052000C854C2F200040A460146204604F0F2F81C
:100530002046BDE8104004F07BB9000043F6EC0013
:10054000C2F2000000F0F0BA7047000072B600BFBF
:10055000FEE7000070B581B00022009290F83C20C8
:10056000012A03D10221084601B070BDD1F800E094
:100570000122BEF10A0F80F83C200BD31FFA8EF245
:100580005200066812FA8EF2A2F11E0306F10C0266
:1005900005E000BF06680EEB4E0306F110024FF0B7
:1005A000070C15680CFA03F4A54315608D681468F0
:1005B00005FA03F3234313604968062906D801EBC3
:1005C0008101053906F134020AE000BF0C2901EB74
:1005D000810187BF413906F12C02233906F130022F
:1005E0001F2314688B4024EA030342F2043C136087
:1005F000C4F2010C1FFA8EF3146803FA01F1ACF592
:10060000417321439E4211603ED1BEF1120F07D1CA
:10061000DCF8001041F48001CCF8001034E000BF99
:100620002EF0010110292FD1DCF80010BEF1100FBF
:1006300041F40001CCF8001026D140F22401C2F2AE
:10064000000109684DF68362C4F21B32A1FB02125D
:10065000910C01EB8101490000910099A1B1009931
:1006600001390091009979B10099013900910099FF
:1006700051B1009901390091009929B100990139CE
:10068000009100990029EAD1002180F83C10084629
:1006900001B070BD40F25810C2F20000012100F814
:1006A000041B02F0A9BE000040F25811C2F2000182
:1006B0000122081D4A7002F09FBE00007047000032
:1006C000002804BF0120704710B50446006C0028C4
:1006D0003ED0206CC00645D4206C41F20211884304
:1006E000023042F204312064C4F20101086820F4AF
:1006F000403008600A6894E809101A43D4F810E002
:100700000A604168012321F4807141604168C0F6AC
:10071000007341EA0E214160416821F0407141605F
:10072000416841EA0C014160816821F40061816007
:10073000E168826811438160A16A8268994222F06F
:1007400070628260826813D122F0405119E000BFCC
:10075000204600F065F80020606484F83C00206CBE
:10076000C006B9D50120002184F83C1010BD00BF9F
:1007700011438160816821F040518160E16A8268A3
:1007800011438160816821F0020181608168227ECD
:1007900094F8203041EA42018160416883B141F41C
:1007A0000061416041684EF2000221F46041416005
:1007B000616ACFF6FF72436802EB4131194301E0F1
:1007C00021F400614160C16A40F2000C21F4700123
:1007D000C162E2696169CFF6F07CC36A0CEB025238
:1007E0001A43C262826822F40072826094F8302058
:1007F000836843EA42228260826822F480628260D7
:10080000826842EA8121816000206064216C0122BB
:1008100062F301012164002184F83C1010BD000046
:1008200070B586B0044642F200002168C4F20100AF
:10083000002681420596049602D006B070BD00BF26
:1008400043F630010096C4F202014A6900F56040A7
:1008500042F480724A614A6902F480720092009AFE
:1008600000960A6842F001020A60096801F001017D
:10087000009100990A2101910321CDE9021601A9F5
:1008800000F048FB43F6EC0546F21040C2F20005CA
:10089000C4F202004FF48061C5E9000605F11000C2
:1008A0004FF400624FF400534FF4807C80E80E1048
:1008B0004FF40030C5E908062846C5E9026600F095
:1008C00013FA002818BFFFF741FEA563AC6306B01A
:1008D00070BD0000B0B582B004460020019094F8CD
:1008E0003C00012802D1022002B0B0BD94460A4665
:1008F0000120216884F83C008868C00729D18868F5
:100900004DF6836540F00100886040F22400C2F299
:1009100000000068C4F21B35A0FB0505A80C00EB25
:10092000400001900198A0B1019801380190019810
:1009300078B1019801380190019850B101980138BF
:100940000190019828B10198013801900198002880
:10095000EAD18868C00503D5886820F48070886073
:100960008D68206CED0709D140F010002064606CA8
:1009700040F001006064002072E000BF40F20175A9
:10098000A84300F5807020644868400504D5206CB9
:10099000012565F30D302064256C0020ED044FF037
:1009A000000544BF656C25F00605656484F83C00CD
:1009B000A06B40F2214540F2A543C0F60005C0F609
:1009C0000003C0E90F5340F29143C0F60003C36433
:1009D0006FF022030B604B6842F2080543F080631E
:1009E0004B608B68C4F2010543F480738B604C311B
:1009F000634600F02BFAD5F8FC222168D2060DD010
:100A0000A5F1080291422BD1296811F0405F27D14E
:100A1000296841F08041296002B0B0BD42F2000275
:100A2000C4F20102914217D042F20022C4F2010244
:100A300091420DD042F20012C4F2010291420FD154
:100A4000D5F8FC22D20607D005F5FC72914207D1F9
:100A5000D5F8FC22D20603D48A6812F0405F01D098
:100A600002B0B0BD8A6842F080428A6002B0B0BD78
:100A700070B5866D044600F031FB94F835100229FC
:100A80002ED105462068216C026822F01602026011
:100A9000426922F08002426109B9A16C19B1016872
:100AA00021F008010160016821F001010160006886
:100AB000C00708D000F012FB401B052818D820689A
:100AC0000068C007F6D1E06D3F2101FA00F0B06088
:100AD000012084F835000020002184F8341070BD16
:100AE000802060650120002184F8341070BD00BFB3
:100AF00020206065032084F83500002184F834103C
:100B000070BD000090F83510022909D1052180F848
:100B100035100068016821F0010101600020704774
:100B20008021416501207047F0B581B00446002066
:100B3000009040F22400C2F200000268D4E916607E
:100B400048F2B51337680821C1F64E338140394267
:100B5000A2FB03250CD0226813685B0708D5136835
:100B600023F004031360B160616D41F00101616520
:100B700001218140394208D022685269120604D509
:100B8000B160616D41F0020161650421814039422B
:100B900008D022681268920704D5B160616D41F0F7
:100BA0000401616510218140394217D02068026834
:100BB000120713D5B16002680168520308D4C90551
:100BC00008D4016821F008010160216C21B905E019
:100BD00008033FD4216C09B120468847E16D2020ED
:100BE00000FA01F23A4241D020680368DB063DD5A5
:100BF000B26094F835300268052B1BD122F0160242
:100C00000260426922F080024261226C0AB9A26C41
:100C10001AB1026822F0080202603F208840B060EA
:100C2000012084F83500216D0020002984F834006B
:100C300052D157E00168520310D4C90512D401689B
:100C400021F010010160012084F83500002084F8B3
:100C5000340007E0A16C0029BED1BFE7080301D42E
:100C6000616C00E0E16B09B120468847606DC8B354
:100C7000606DC0072ED0052084F835002068A90AD1
:100C8000026822F001020260009A01328A42009258
:100C90001AD80268D20717D0009A01328A4200920D
:100CA00012D80268D2070FD0009A01328A4200920D
:100CB0000AD80268D20707D0009A01328A4200920D
:100CC00002D80268D207DFD1012084F83500002065
:100CD00084F83400E16C29B1204601B0BDE8F04051
:100CE000084700BF01B0F0BD2DE9F041044600F017
:100CF000F5F9002C4ED00546022084F8350000207E
:100D0000216884F83400086820F001000860086851
:100D1000C00708D000F0E2F9401B05286CD8216814
:100D20000868C007F6D1086848F23F02CFF2100207
:100D3000D4E90135024004F10C0E9EE8C1511A437A
:100D40002A4310433043384340EA0800626A40EACD
:100D50000C00042A40EA0E0320D1D4E90A5E206B7D
:100D60004EEA0302104308604869BEF1000F20F00C
:100D7000030040EA050040F0040C15D0B8F5005F10
:100D800042D0B8F1000F51D1022D52D0012D47D0E1
:100D900055B94EE00120BDE8F08100BF0B60486905
:100DA00020F0070040EA020C6FF00F004AF6AB2279
:100DB00050FA81F0CAF6AA22A0FB02231A0946F6CD
:100DC0006473C0F600039A5C40F2FF335F284FF073
:100DD0003F00C1F814C021EA030100FA02F088BF05
:100DE0000431C4E9161288600023012200206365E3
:100DF00084F83520BDE8F0810322202303206365B9
:100E000084F83520BDE8F081032DCDD801224023A0
:100E10000120DFE805F0030E030500BFE7E700BF90
:100E2000AEF1C070B0FA80F0400904E0032D04D3A5
:100E3000BAD1CEF300600028B6D0012240230120B1
:100E4000636584F83520BDE8F081000070B590F846
:100E500034C0BCF1010F46D04FF0010C80F834C013
:100E6000D0F858E090F835C0BCF1010F38D14FF000
:100E7000020C80F835C04FF0000CC0F854C0D0F818
:100E800000C08468056CC06DDCF80060402C26F45E
:100E90008026CCF80060CCF804300B4604BF134623
:100EA0000A463F2101FA00F0CCF80830CCF80C20BB
:100EB000CEF80800DCF8000040F01600CCF8000086
:100EC0002DB1DCF8000040F00800CCF80000DCF8A0
:100ED000000040F00100CCF80000002070BD00BF11
:100EE000002180F83410022070BD0000B0B5044627
:100EF00000F0F4F8054640F20000C2F2000000786D
:100F0000611C18BF044400BF00F0E8F8401BA04279
:100F1000FAD3B0BD2DE9F04F82B000F13E4241F668
:100F2000004502F1FF77C4F2020508224FEAB72616
:100F3000A84208BF0722072E38BF4FEAB7224FF05A
:100F4000010A002400274FF00008009208E000BFCB
:100F5000023708F10108202F04F1040400F0B480E6
:100F60000E680AFA08F916EA090FF1D0D1F804A0C0
:100F70000AF0030BABF10106012E17D80322866895
:100F800002FA07FECA6826EA0E06BA4032438260B9
:100F90004268CAF3001522EA090205FA08F54FEA89
:100FA000480C6FEA0E062A4342600BE00322BA4067
:100FB000D643BBF1030FBC4604D1BC464FF0030B34
:100FC00022E000BFC2688D68324005FA0CF52A4362
:100FD000BBF1020FC26017D16FF0030202EA5802A0
:100FE000024404F01C030F25D2F820E005FA03FAAE
:100FF0000D692EEA0A0E05FA03F343EA0E031362A3
:10100000D1F804A00AF0030B02680BFA0CF332408B
:101010001A431AF4403F4FF0010A026098D00022B0
:1010200043F644030192C4F202031A6843F6004EE9
:1010300042F480421A601A68C4F2010E02F480423F
:101040000192019A28F003024FF6084C7244CFF641
:10105000FF7C52F80C3004F00C060F25B540AB4372
:10106000009D05FA06F6334342F80C30DEF80820FE
:101070004B6842EA090643F60C4CDD0258BF22EAEF
:101080000906CEF80860C4F2010CDCF800209D02CD
:1010900042EA090658BF22EA0906CCF80060DEF8E9
:1010A00004209D0342EA090658BF22EA0906CEF849
:1010B0000460DEF80020DB0342EA090658BF22EA9A
:1010C0000906CEF8006043E702B0BDE8F08F0000EB
:1010D000002A08BF090481617047000043F66C7064
:1010E000C2F200000068704770B5B8B3044690F8CB
:1010F0003D0028B9002084F83C00204600F0B0F8FC
:10110000242084F83D002068016821F0010101607D
:10111000016841F400410160016821F4004101606F
:1011200001F0AAFD48F28041C0F21E0140F6001312
:10113000D4F804E088424FF00001C0F23D0348F2C9
:10114000A16C4FF0000238BF01219842C0F2010C9F
:1011500038BF0122E64538BF0A460AB1012070BDFA
:101160004DF68361C4F21B31A0FB01122168950C7E
:101170004B684FF4967623F03F0343EA924375435E
:1011800044F6D3564B60C1F262060B6AA5FB0656C5
:10119000B50923F03F03E64538BF950C6A1C1A4396
:1011A0000A62CA6948F2A0664CF6FF73C0F20106F3
:1011B000B64522EA03020BD801384FEA4E03B0FBD2
:1011C000F3F001306FF31F30042898BF04201EE0B5
:1011D000A368013863B119230EFB03F3B0FBF3F0EE
:1011E00001306FF31F3078B100F5804008E000BF98
:1011F0000EEB4E03B0FBF3F001306FF31F3028B15C
:1012000000F5004003E000BF012000E00120104392
:10121000C8610868D4E9072320F0C00010431843D0
:101220000860886848F2FF3204F10C0690434CCE07
:1012300018431043A5698860C86820F0FF00304358
:101240002843C860086840F00100086000202021A1
:10125000206484F83D10206384F83E0070BD0000D7
:10126000B0B586B0016845F20040C4F2000081428A
:1012700002D006B0B0BD00BF002443F63005019493
:10128000C4F20205296800F5D83041F00201296056
:10129000296801F00201019101994FF41071019147
:1012A000122102910121CDE903140421059101A924
:1012B000FFF730FE0094286940F400102861286987
:1012C00000F400100090009806B0B0BD2DE9F04188
:1012D00086B00446006844F20C05816843F2044875
:1012E000C4F20005C4F20008059108F57F77291FB4
:1012F000B84208BF08F10401096808F54066049186
:101300004168B8420391314604BF43F20441C4F23C
:1013100000010A680292626842F40072B2F5007F2E
:101320004CD10599890744BF03995FEA01617BD4D9
:101330000498C00721D0029840061ED52068E16AB3
:10134000B84208BF08F108052A6821F8022BE162BB
:10135000618E01396186618E79B9B842304608BF25
:101360004046016821F060010160608D28B90120CC
:1013700084F84100204600F0E5F80498400644BF98
:1013800002985FEA80606BD40598000744BF039819
:101390005FEA806044D520684168B84221F0A0012E
:1013A000416008BF4646316821F06001316000218C
:1013B0000191806801900198B6E000BF049A9207FD
:1013C00044BF029A5FEA02626AD40598C00719D046
:1013D0000398400616D52068E16AC26821F8022BFE
:1013E000E162618E01396186618E59B9416821F0EF
:1013F00060014160608D28B9012084F841002046D9
:1014000000F0A0F80598400644BF03985FEA8060AA
:1014100066D40498000744BF02985FEA806077D4DE
:1014200006B0BDE8F08100BF616A31F8022B61624D
:10143000C260618D01396185618D00297FF478AFCB
:10144000416821F0A0014160608E00287FF470AFF8
:10145000012084F84100204600F074F868E700BFDE
:1014600020683146B84208BF41460A6822F060024F
:101470000A60416821F0A001416000210191C1682A
:101480000191806801900198012084F84100606C0E
:1014900040F002006064204600F056F874E700BF98
:1014A000626AB84232F8023B626208BF08F108057E
:1014B0002B60608D01386085608D00287FF485AFDA
:1014C000086820F0A0000860608E00287FF47DAFDF
:1014D000012084F84100204600F034F875E700BF91
:1014E00020684168B84221F060014160304608BF81
:1014F0004046016821F0A0010160012084F841000C
:10150000606C40F002006064204600F01DF880E747
:101510002068B84208BF4646316821F0A00131601A
:10152000416821F060014160012084F84100606C55
:1015300040F004012046616406B0BDE8F04100F0CF
:1015400003B800007047000070470000F0B581B09C
:10155000002852D0044690F8410050B9002084F889
:10156000400043F6D550C0F600006063204600F00E
:101570009DF8022184F8411020686269C36940F631
:10158000BF75AB43022AC361016203D12169022204
:101590003CE000BFD4E902012022002908BF10224C
:1015A000002121284FF0010038BF012102FA01F586
:1015B00001F0DAF92169B1F5007F04D1E268002A6F
:1015C0000CBFED00AD00B0FBF5F0626900EB8000F0
:1015D0004000B0FBF2F04CF6CD420530CCF6CC42E8
:1015E000A0FB02206FF0FF0202EB101212F1FE0FBF
:1015F00006D2606C40F010006064012001B0F0BDC4
:10160000020900F00803206842EA43121143016214
:10161000C16940F6BF7C21EA0C05D4E90123E168E9
:10162000D4F818E00B4343EA0201294341EA0E01D2
:1016300041F40061C161216A01292FD141F2CD211C
:10164000C0F60001616343F21C41C4F2000101F5E0
:10165000797501F54066A84204BF43F21C46C4F206
:1016600000063768A84227EA0C07376044F22007D3
:10167000C4F2000708BF0F1D022038606FF400712C
:101680004FF4006730680A4208BF4FF4106743EA1E
:10169000070141EA0E01084380B2306000200121B9
:1016A000606484F8411001B0F0BD00002DE9F04104
:1016B0008AB043F600450068C4F200050021A84244
:1016C000049103D00AB0BDE8F08100BF0120019071
:1016D000C02002904FF0020801A8CDF80C8001F064
:1016E0006FF9002818BFFEF731FF002743F63000DE
:1016F0000597C4F20200016905AC41F400410161A3
:101700000169062601F400410591059905970168D4
:1017100041F001010160016801F0010105910599A5
:101720000597016841F0040101600068214600F05E
:101730000400059005981020CDE9050805F5E23074
:10174000CDE907770996FFF7E5FB4FF4A450CDE903
:10175000050805F5E6302146CDE907770996FFF73C
:10176000D9FB0AB0BDE8F081704700007047000067
:1017700040F2000043F66C71C2F20000C2F20001B8
:1017800000780A68104408607047000080B543F68E
:101790000040C4F20200016841F400710160016878
:1017A00041F480610160016841F4807101600320AF
:1017B00000F086F8002000F005F800F027F800207F
:1017C00080BD000070B540F20006C2F2000640F293
:1017D00024013278C2F200014FF47A730968B3FB36
:1017E000F2F20446B1FBF2F1084601F0EDFC0F2CD9
:1017F0004FF0010508D838B94FF0FF3021460022DC
:10180000002500F031F87460284670BD82B00020D9
:1018100043F640010190C4F202014A6842F480425A
:101820004A604A6802F480420192019A0090086876
:1018300040F080500860086800F0805000900098E8
:10184000072002B000F03CB8002848BF704700F005
:101850001F01012202FA01F14EF200124009CEF2FC
:10186000000242F82010704710B54EF60C5CCEF224
:10187000000CDCF80030C3F3022E8EF00704042CB9
:1018800028BF0424BEF103034FF0FF3E0EFA04F418
:1018900038BF0023A14399400EFA03F39A43114342
:1018A00000F00F02043A624409010C3200F1604377
:1018B000B0F1FF3FC8BF03F56442117010BD0000D6
:1018C0004EF60C51CEF200010A684FF6FF031A40A3
:1018D00060F30A2242F0806040F0FD7008607047BB
:1018E0007047000002680020516270472DE9F04304
:1018F000D0F80090D9F82400A1B1D9F82830B1F17E
:10190000010800EB13435DD0A8F10100C0B2032829
:1019100008F0030C0ED24FF0010E0027BCF1000FAF
:1019200033D14FE040EA0240C9F828000020BDE86A
:10193000F08300BF08F0FC0E09F1F404002009F563
:10194000827500BF54F8107F064603EB174046F03F
:101950000103DBB246F0020755F82330FFB255F819
:10196000277000EB134000EB174346F00300C0B2B2
:1019700055F82010301DC7B2774503EB1143E1D174
:1019800006F1050EBCF1000F1CD009EB8700D0F862
:101990000401BCF1010F03EB104313D05FFA8EF08A
:1019A00009EB8000D0F80401BCF1020F03EB1043F7
:1019B00008D00EF10100C0B209EB8000D0F804019C
:1019C00003EB104343EA024009EB8801C1F804012C
:1019D0000020BDE8F0830000D0F8E00403F038BA3E
:1019E00001EBC102D0F8E03400EB8200026A184635
:1019F00003F090B901EBC102D0F8E03400EB8200B3
:101A0000D0F86022184603F0E3B90000D0F8E004F3
:101A100003F020BA10B50446080601F00F0000EBF1
:101A2000C00104EB810205D402F51571002382F890
:101A3000553203E0012302F11401537594F8942404
:101A40000870012A04BF022010BD2068012284F81A
:101A5000942404F013F8002084F8940410BD0000CE
:101A6000B0B50279044601F00F00904284BF012016
:101A7000B0BD09060AD400EBC00104EB810202F5F7
:101A80001571002382F8553208E000BF00EBC00159
:101A900004EB8102012302F11401537594F894249C
:101AA0000025012A8D70087004BF0220B0BD206897
:101AB000012284F8942404F0CFFA284684F8945440
:101AC000B0BD000001F00F0101EBC10100EB81008E
:101AD000D0F8680270470000B0B50546080601F06E
:101AE0000F0000EBC00105EB810C05D40CF515715E
:101AF00000248CF8554204E001240CF114018CF808
:101B000015404C786FF3DF22002C08708A600B714F
:101B100018BF4883022B04BF0020487195F8940435
:101B2000012804BF0220B0BD2868012285F8942452
:101B300003F012FE002085F89404B0BD10B501F04A
:101B40000F0404EBC40100EB810E4FF0000CCEF843
:101B500068C28EF855C290F806C0CEF86022CEF862
:101B60006432BCF1010F8EF8544208BFCEF87022E7
:101B700000680EF51571624604F0B6FA002010BD3B
:101B8000B0B50446007901F00F05854284BF0120FD
:101B9000B0BD08060AD401EBC10004EB800000F5DB
:101BA0001571002280F8552208E000BF05EBC50042
:101BB00004EB8000012200F11401427594F89404B2
:101BC000012201288A700D7004BF0220B0BD206878
:101BD00084F8942404F068FA25B1002084F8940471
:101BE000B0BD00BF2068A17904F29C4204F006FA5F
:101BF000002084F89404B0BD80B501F00F0C0CEB0C
:101C0000CC0100EB810E714601F814CF4FF0000CAF
:101C1000C1F814C04FF0010C81F801C090F806C063
:101C2000CA60BCF1010F0B6108BFCEF8302000681C
:101C3000624604F059FA002080BD00002DE9F04F03
:101C40008BB005688246284604F070FC10B10BB0DA
:101C5000BDE8F08FDAF8000004F096FC0028F6D01A
:101C6000D5F80808C0F30D21DAF80000CAF8D4143A
:101C700004F08AFC0146DAF80000890703D54169BF
:101C800001F00201416105F50061039104F07CFC63
:101C90000146DAF80000C90605953BD5816921F0B7
:101CA000100181612C6AC4F34340062804F00F053B
:101CB00018D0022827D147F6F07014EA000622D087
:101CC00005EBC5000AEB8007D7F8601234090598C8
:101CD000224604F05DFCD7F8600200EB1610C7F84E
:101CE000600207E005980AF29C41082204F050FCCB
:101CF000C4F30A1405EBC5000AEB8000D0F86812A3
:101D00002144C0F86812DAF80000816941F010013E
:101D10008161059D04F038FC0003CDF828A040F156
:101D2000ED80DAF8000004F00DFC002800F0E680F9
:101D300006460AF29C400AF51D784FF430644FF0D5
:101D4000000B09901BE000BF2819022181605FEAA7
:101D50008A6042BF2819202181605FEA8A40DDF84D
:101D600028A042BF28194FF4005181600BF1010BEC
:101D7000760804F1200408F1240800F0BF80F00781
:101D8000F4D0DAF800005FFA8BF9494604F0F4FB6E
:101D90008246C00762D02819012181600A9F3868F5
:101DA0002118036C8A68BF79012F29D1170735D410
:101DB000970600F19B8012F0280F4FD143F20B07DA
:101DC000C4F65477BB4202D312F400422FD1D8F8A4
:101DD00000200969BBF1000F6FF3DF41A2EB0101A5
:101DE00048F80C1C35D10A9BD3F86422002A00F075
:101DF0008380D3F860020844C3F8600229E000BF82
:101E000043F20B07C4F65477FF37BB4216D11004D8
:101E10000DD4900644BF202088601AE043F20B00E6
:101E2000C4F65470834219D312F4004016D04FF414
:101E3000004088605FEA0A7013D437E0BBF1000FFE
:101E400007D10A99D1F8641219B90021099A04F04E
:101E5000D5F80A984946FFF7CDFD00BF5FEA0A7042
:101E600024D52819082181600A9843F20B020068E2
:101E7000C4F65472056C20448168571EBD4205D9D2
:101E800011F400411CBF4FF4004181600A9800F03A
:101E900029FDBD42059D09D90A988079012805D1FF
:101EA0000A98099A0068012104F0A8F85FEACA605C
:101EB00042BF2819102181605FEA8A707FF547AF21
:101EC0006869000604D50399486840F4806048605A
:101ED00018F81D0C01287FF437AF002008F81D0CFE
:101EE0000A98494600F042FB2EE700BF2020886098
:101EF0005FEA0A70B5D4D9E70121A7E7DAF8000054
:101F000004F042FB039E400340F1DE80DAF800005B
:101F100004F010FB002800F0D78005F51061049153
:101F20000AF29C414FF0000B029104E040080BF1D3
:101F3000010B00F0C980C107F8D00690DAF8000064
:101F40005FFA8BF1099104F005FB049F0446C0077A
:101F500028D00BF00F00716B012202FA00F021EA89
:101F60000000706307EB4B1082609AF806000128AE
:101F700014D10BEBCB000AEB8000D0E90712BBF1C8
:101F8000000F1144016209D1DAF8240030B9DAF8FF
:101F90000000029A012104F031F800BF099950466F
:101FA000FFF71EFD200742BF07EB4B1008218160A1
:101FB000E00642BF07EB4B1010218160600642BF74
:101FC00007EB4B1040218160A00715D528465946E4
:101FD00004F03EFA0BEBCB000AEB800010F8171F61
:101FE000012905D1002101700999504600F0BAFA83
:101FF00007EB4B10022181602006069896D50BEB6B
:10200000CB010AEB8104A14659F8242FC84658F8A1
:10201000047FBA428AD3DAF8005054F81C3FD11B2F
:10202000994288BF1946089505EB4B1CDCF81859F6
:102030000331ADB2B5EB910F28BFBA4204D8059D6C
:10204000BA423FF673AF33E004F1040ADAF8001045
:102050000CF51065079400BF0A98D41B9C42867942
:1020600088BF1C46DDE90802A3B2009604F03CFDDF
:10207000DAF80000E31C0119D8F80000CAF80010D3
:102080000719C8F80070AA6996B2D9F80020B6EB13
:10209000930F28BFBA4203D907980368DCE700BF53
:1020A000DDF828A0039EDDE90550BA423FF63EAFB9
:1020B000089F0BF00F02D7F83418012303FA02F23D
:1020C0009143C7F8341831E7DAF8000004F05CFAFD
:1020D000002823D4DAF8000004F056FA00053AD4B8
:1020E000DAF8000004F050FAC00444D5D5F804082A
:1020F000102120F00100C5F80408DAF8000004F00F
:10210000A7F99AF80400002800F0F580411E032981
:1021100000F0030C32D200219CE000BF706820F078
:10212000010070609AF8CC04012807D100208AF8D9
:10213000CC0450460021FFF7D3FB02E0504600F0EC
:10214000B5FBDAF80000416901F00041416104F09B
:102150001BFA0005C4D5B068C00702D0504600F095
:10216000E9FBDAF80000416901F40061416104F023
:102170000BFAC004BAD4DAF80000EAE000F0FC0E72
:1021800005F536634FF6A0564FF6C0554FF6E054AE
:102190004FF6006000214FF67F37CFF6FF76CFF67F
:1021A000FF75CFF6FF74CFF6FF7000BFA3F518726E
:1021B00097609A59043122F400129A5143F8587CDE
:1021C00053F8602C8E4522F4001243F8602C53F82B
:1021D000602C42F0006243F8602CA3F51072976007
:1021E0005A5922F400125A5143F8387C53F8402CC3
:1021F00022F4001243F8402C53F8402C42F00062C5
:1022000043F8402CA3F5087297601A5922F4001283
:102210001A5143F8187C53F8202C22F4001243F88A
:10222000202C53F8202C42F0006243F8202CA3F518
:10223000007297601A5822F400121A509F601A68B0
:1022400022F400121A601A6842F000621A6003F168
:102250008003ABD1059D039EBCF1000F4BD005F56B
:10226000106000EB41124FF67F334F019360C65967
:1022700005F5306226F40016C65102EB4116B36034
:10228000D659BCF1010F26F40016D651D65946F0A6
:102290000066D651039E2ED04F1C00EB47157E01E1
:1022A000AB60855902EB471725F400158551BB60DB
:1022B0009359BCF1020F23F400139351935943F047
:1022C00000639351039E16D0023100EB41174FF685
:1022D0007F364B01BE60C75827F40017C75002EB8A
:1022E00041108660039ED05820F40010D050D05882
:1022F00040F00060D050F06940F00110F0619AF8B1
:102300000F0048B1D6F8840040F00B00C6F88400F6
:1023100006F1440007E000BF706942F22B01084358
:10232000706106F1100001680AF29C4241F00B0155
:102330000160306820F4FE603060DAF800009AF83E
:10234000061003F05BFEDAF80000416901F48051E9
:10235000416104F019F90146DAF8000089041AD540
:1023600003F040FADAF8000004F0D2F8DAF800409E
:102370008AF8070000F07AFC9AF807200146204608
:1023800004F022FB504600F07BFADAF800004169C5
:1023900001F40051416104F0F7F8000706D4DAF8BF
:1023A000000004F0F1F800060DD435E0504600F0CE
:1023B00081FADAF80000416901F00801416104F096
:1023C000E3F8000628D50599886920F08000886127
:1023D0009AF8040002281FD30AF27B24012504E0A6
:1023E0000135854204F1240416D221780129F7D160
:1023F00005F00F0000EBC0000AEB80022806DAF8B7
:10240000000002F1140158BF02F5157103F090FFAE
:102410009AF80400E4E700BFDAF8000004F0B4F82A
:10242000C0024BD4DAF8000004F0AEF8059D80023B
:102430007AD59AF80400022827D3013805F53261CD
:102440000AF51F72012305E0013801F1200102F1B4
:1024500024021AD00F681678012EF5D1B7F1FF3F8C
:10246000F2DCDAF8D46486EA1747FF07ECD102F809
:10247000013CAF6947F08007AF616F693F06E3D465
:102480000399486840F400704860DAF80000416938
:1024900001F40011416104F077F840004AD550463C
:1024A000FFF79AFADAF80000416901F080414161D2
:1024B00004F06AF840077FF5CAAB42E09AF80400DE
:1024C000022825D305990AF13C0501F5126401267D
:1024D000012705E001372034874205F1240517D292
:1024E00021682A78012AF5D1B1F1FF3FF2DC07F02B
:1024F0000F0000EBC0000AEB8001DAF80000143195
:1025000005F8016C03F014FF9AF80400E2E700BF3D
:10251000DAF80000416901F48011416104F034F8F7
:10252000059D80023FF585AFDAF8000004F02CF835
:102530004000B4D4DAF8000004F026F840077FF534
:1025400086ABDAF800004468610704D55046FFF70F
:102550005DFADAF800004168214341600BB0BDE844
:10256000F08F0000D0F8E00402F0CEBCD0F8E00418
:1025700002F0DEBCF0B581B0002800F025810446F1
:10258000056890F8950428B9002084F89404204642
:1025900000F02AF90320B5F1A04F84F8950404BF98
:1025A0000020A071206803F021FD94E80F00267C34
:1025B000009603F027F9002840F0038120680021ED
:1025C00004F03CF8002840F0FC802179002900F05C
:1025D000F180A1F1010C01F0030EBCF1030F4FF0EB
:1025E000000045D301F0FC0504F19A020126002306
:1025F0005F1C02F8627C22F8487C9F1C02F8863C33
:1026000022F86C3C02F83E7C22F8247CDF1C043368
:1026100002F8856C02F8820C42F87E0C42F87A0CC3
:1026200042F8760C02F8616C02F85E0C42F85A0C23
:1026300042F8560C42F8520C02F83D6C02F83A0C83
:1026400042F8360C42F8320C42F82E0C02F8196CA3
:1026500002F81A7C178002F8160C42F8120C42F8A5
:102660000E0C42F80A0CAB4202F19002C0D118469F
:10267000BEF1000F2CD000EBC00204EB8205012359
:102680000022BEF1010F6B752875E8852A76C5E931
:1026900007226A621CD0451C05EBC50604EB8606C2
:1026A000BEF1020F73753575F5853276C6E90722DE
:1026B00072620DD0023000EBC00204EB82020123F3
:1026C0001075D085002053751076C2E9070050625E
:1026D00000296FD0BCF1030F4FF0000233D301F09B
:1026E000FC0004F5347100235F1C01F8587C9F1C2A
:1026F00001F87C3C01F8347CDF1C043301F87B2CAE
:1027000001F8782C41E91D2241F86C2C01F8572C76
:1027100001F8542C41E9142241F8482C01F8332CDB
:1027200001F8302C41E90B2241F8242C01F80F2C40
:1027300001F8107C01F80C2C41E9022241F8902BA1
:102740008342D1D11A46BEF1000F33D002EBC20052
:1027500004EB80010020BEF1010F81F8550281F8E1
:10276000542281F85802C1E99700C1F8640221D0CF
:10277000511C01EBC10304EB8303BEF1020F83F88C
:10278000550283F8541283F85802C3E99700C3F83E
:1027900064020FD0901C00EBC00104EB8101002209
:1027A00081F8552281F8540281F85822C1E9972214
:1027B000C1F8642294E80F00277C009703F0C0F969
:1027C00030B1022084F895040125284601B0F0BDFF
:1027D00000250120657484F89504206803F0A0F9B1
:1027E000284601B0F0BD0000F0B587B000680026B3
:1027F000B0F1A04F0696059602D007B0F0BD00BF1D
:1028000043F630070196C4F202073868002440F00E
:10281000010038603868C4F2020400F00100019041
:1028200001984FF4007002ADCDE90206204629461A
:102830000496FEF76FFB4FF4E05002900220CDE9C2
:1028400003060A200690204629460596FEF762FBFD
:102850007868002140F08000786001967869002255
:1028600040F480407861786900F4804001900198DC
:102870004320FEF7F9FF4320FEF7E6FF07B0F0BD67
:1028800010B50446C07928B1022818BFFDF75EFED6
:10289000012100E00021D4F8E00402F0CFFBD4F8DD
:1028A000E004BDE8104002F07DBB0000D0F8E00479
:1028B00002F0ACBBD0F8E00402F0B2BB10B50446A5
:1028C00090F89404012804BF022010BD012084F870
:1028D00094046174206804F065F8002084F894047E
:1028E00010BD0000D0F8E02400F29C41104602F038
:1028F000BBBB000010B5044690F89404012804BF47
:10290000022010BD2068012184F89414C168490692
:1029100006D5617B012903D1816B41F4803181634C
:1029200003F08EFD206803F0EBF8002084F8940497
:1029300010BD000010B50446D0F8E00402F0EAFB38
:102940002068D0F8001E41F00101C0F8001EE07AB6
:10295000002808BF10BD4EF61050CEF200000168EE
:1029600041F00601016010BD01281CBF0020704726
:1029700043F60400C4F202004168090242BF48F273
:102980000000C0F2BB00704701680268490241F2D2
:102990000021C0F27A0102F03F025CBF42F2004126
:1029A000C0F2F401D0F88030B1FBF2F1D0F8800031
:1029B000C3F388125143C0F30270B1FBF0F07047CB
:1029C000F0B581B00446006810F0050F2DD06827DF
:1029D000C4F2472743F670060020C4F202063860AE
:1029E000FEF77CFB054600BF56F8700C000105D5CC
:1029F000FEF774FB401B0228F6D93FE0D4E9011032
:102A0000000740EA8110706101203860FEF766FB24
:102A1000054600BF56F8700C000105D4FEF75EFBBA
:102A2000401B0228F6D929E0206880074FF00000FB
:102A300058D543F67006C4F20206009056F8300CE2
:102A400047F2000740F0805046F8300C56F8300C42
:102A5000C4F2000700F0805000900098386840F4FD
:102A600080703860FEF73AFB054600BF3868C00545
:102A700008D4FEF733FB401B0228F7D9032001B02E
:102A8000F0BD00BF306810F4407013D0E16801F46D
:102A9000407188420ED0306840F64061C4F2472150
:102AA000012220F440700A6000220A603060306821
:102AB000C00719D1E06856F8681C4FF6FF4300F4D0
:102AC000407221F4F811C0F6FF730340B2F5407F65
:102AD00008BF194346F8681C31686FF31F3008437C
:102AE0003060002001B0F0BDFEF7F8FA054641F273
:102AF000883700BF30688007DCD4FEF7EFFA401B50
:102B0000B8424FF00300F5D9ECE700002DE9F041A1
:102B1000002800F08B8043F60808C4F2020804463F
:102B2000D8F8F8030D4600F00700884207D288F86D
:102B3000F853D8F8F80300F00700A84276D12068CF
:102B4000810717D5410705D5D8F8001041F4E051A9
:102B5000C8F80010010705D5D8F8001041F460410D
:102B6000C8F80010D8F80010A26821F0F001114355
:102B7000C8F80010C0073FD1D8F8F80300F00700EC
:102B8000A84207D988F8F853D8F8F80300F00700EE
:102B9000A8424BD12068410707D5D8F80010E26859
:102BA00021F4E0511143C8F80010000708D5D8F807
:102BB0000000216920F4604040EAC100C8F800002C
:102BC00000F082F8D8F8001046F64C72C1F30311F9
:102BD000C0F60002515C40F2240220FA01F140F2FA
:102BE0000400C2F200000068C2F200021160FEF7A9
:102BF000E9FD0020BDE8F0816068811E022907D24E
:102C000058F8081C89015CBF0120BDE8F08111E083
:102C1000012807D158F8081C89035CBF0120BDE8D2
:102C2000F08107E058F8081C890703D40120BDE8AB
:102C3000F08100BFD8F8001021F003010843C8F864
:102C40000000FEF74BFA064641F28837D8F800003C
:102C5000616800F00C00B0EB810F8DD0FEF73EFAFA
:102C6000801BB842F2D90320BDE8F08140F2240075
:102C7000C2F200000068704740F2240043F60801E9
:102C8000C2F20000C4F202010068096846F65C72F4
:102C9000C1F38221C0F60002515CC84070470000B9
:102CA00040F2240043F60801C2F20000C4F202011F
:102CB0000068096846F65C72C1F34231C0F6000252
:102CC000515CC8407047000010B543F60404C4F2DC
:102CD0000204606800F00C0142F200400829C0F2D2
:102CE000F40007D0042918BF10BD41F20020C0F243
:102CF0007A0010BD216801F03F0221682368490273
:102D0000C3F3881106D4A1FB00010023FDF7ACFA40
:102D100007E000BF41F20020C0F27A004843B0FB58
:102D2000F2F021680222C1F3014102EB4101B0FB44
:102D3000F1F010BD2DE9F04182B000286AD00446C0
:102D4000007843F60006C007C4F202060BD0B06854
:102D500000F00C00042840F0A1803068800302D508
:102D60006068002856D0207880071AD5B06810F027
:102D70000C0F09D0B06800F00C00082840F0A880C3
:102D80007068400200F1A4803068800702D5E068D6
:102D900001283FD13068216920F0F80040EAC100E5
:102DA00030602078000739D4207840074ED4A569D8
:102DB0005DB3B06800F00C00082840F0BD80012D24
:102DC00028D07068E16900F480028A4222D1216A29
:102DD00000F03F028A421DD147F6C071626A01408D
:102DE000B1EB821F16D1A26A0023CFF6FF7303EB6B
:102DF000C23200F440316FF30F0291420AD1E16A0E
:102E000000F07060B0EB016F04D1002002B0BDE8AB
:102E1000F08100BF012002B0BDE8F08160690028A8
:102E200040F20000C4F2472076D00121C0F8801E95
:102E3000FEF754F9054600BF706F8007B4D4FEF763
:102E40004DF9401B0228F7D9DDE000BF306C10F0CF
:102E500080580AD100200190306C40F080503064DE
:102E6000306C00F080500190019847F20007C4F2E6
:102E700000073868C00541D4386840F48070386075
:102E8000FEF72CF9054600BF3868C00536D4FEF7BA
:102E900025F9401B0228F7D9B5E000BFB06800F063
:102EA0000C00082803D1706840023FF556AF6068F7
:102EB000B0F5803F07D0B0F5A02F40F08D8030688E
:102EC00040F480203060306840F4803030608DE025
:102ED000E068002852D00020C4F2472001210160A0
:102EE000FEF7FCF8054600BF306880073FF552AF9B
:102EF000FEF7F4F8401B0228F6D984E0A068012808
:102F000005D005284ED1306F40F004003067306F97
:102F100040F0010030674FE00021C0F8801EFEF74E
:102F2000DDF80546706F80077FF53EAFFEF7D6F8F7
:102F3000401B0228F6D966E00027C4F2472700208C
:102F40003866FEF7CBF8022D05460BD130688001BC
:102F50005ED5FEF7C3F8401B02284FF00300F5D9F9
:102F600054E700BF306880017FF54FAFFEF7B6F839
:102F7000401B02284FF00300F4D947E70020C4F2B9
:102F8000472000210160FEF7A9F805463068800758
:102F90007FF507AFFEF7A2F8401B02284FF00300B1
:102FA000F4D933E7316F002821F001013167316F27
:102FB00021F0040131674DD0FEF790F8054641F24B
:102FC000883700BF306F800756D4FEF787F8401B64
:102FD000B842F7D917E000BF3168002821F48031EA
:102FE0003160316821F4802131604FD0FEF776F8EE
:102FF000054600BF306880033FF5B5AEFEF76EF8BA
:10300000401B6428F6D9032002B0BDE8F08100BF60
:1030100004F11C052FCD08430021CFF6FF7140EAD3
:10302000821001EBC3316FF30F0140EA05600843E2
:10303000706001203866FEF751F804463068800160
:103040003FF5E3AEFEF74AF8001B02284FF00300FD
:10305000F4D9DBE6FEF742F8054641F2883700BFB7
:10306000306F800708D5FEF739F8401BB8424FF0A3
:103070000300F5D9CAE600BFB8F1000F7FF497AEA0
:10308000306C20F08050306491E600BFFEF726F8E7
:10309000054600BF306880037FF565AEFEF71EF879
:1030A000401B64284FF00300F4D9AFE670B538B187
:1030B0000446406A30B10020206104F1140007E0AA
:1030C000012070BD6068B0F5827F03D004F11C0060
:1030D000002101600026A66294F8510020B9204624
:1030E00084F8506000F03CF8022084F8510094E825
:1030F0000F0001F48271056802F4044225F04005D6
:103100000560114403F400622369114403F00202D4
:103110006369114403F00102A369E569114403F4F2
:103120000072114405F03802256A114405F080024E
:10313000A56A114305F4005211430160626A04213B
:1031400001EA134102F0100211444160C16921F407
:103150000061C1610120666584F85100304670BD90
:1031600080B586B0016843F20000C4F201008142DC
:1031700002D006B080BD00BF002143F630020191AD
:10318000C4F20202536900F5504043F48053536186
:10319000536903F480530193019B0191136843F039
:1031A00001031360126802F001020192019AE02209
:1031B00001920222CDE9022104910521059101A984
:1031C000FDF7A8FE06B080BD411E0020B0EB116FD8
:1031D0001CBF012070474EF21002CEF20002516077
:1031E0004EF62351CEF20001F0230B7007219060C0
:1031F00011607047704700007047000010B590F8EC
:103200003C20012A4FF0020251D080F83D20026894
:10321000D2F804E0D2F808C00C682EF07003234303
:1032200041F2FF74C4F20004A24253600EDC40F28B
:10323000FF73C4F200039A4216DCB2F1804F2BD028
:1032400040F20043C4F2000324E000BF40F2FF3329
:10325000C4F201039A4213DC41F60003C4F20003F6
:103260009A4219D0002313E040F60003C4F2000391
:103270009A4211D040F60043C4F200030AE000BFB6
:1032800044F20003C4F201039A4205D040F2004325
:10329000C4F201039A4204D149682CF08003194317
:1032A00091600121002280F83D1080F83C201046FA
:1032B00010BD0000002804BF0120704710B504466F
:1032C00090F83D0028B9002084F83C00204600F02A
:1032D0001FF8022084F83D002068211D00F0ACFE9C
:1032E000012084F8460084F83E0084F83F0084F80A
:1032F000400084F8410084F8420084F8430084F8D8
:10330000440084F8450084F83D00002010BD000012
:1033100080B582B00068B0F1804F1CBF02B080BDA4
:103320000020019043F64000C4F20200016802222E
:1033300041F0010101600068002100F001000190EE
:1033400001981C20FEF790FA1C2002B0BDE88040D6
:10335000FEF77ABA90F83D1001291CBF0120704792
:10336000022180F83D10006841F2FF71C4F20001B3
:1033700088420DDC40F2FF71C4F20001884215DC86
:10338000B0F1804F2AD040F20041C4F2000123E0A6
:1033900040F2FF31C4F20101884213DC41F6000122
:1033A000C4F20001884219D0002113E040F6000168
:1033B000C4F20001884211D040F60041C4F200017D
:1033C0000AE000BF44F20001C4F20101884205D0C6
:1033D00040F20041C4F20101884206D1816801F047
:1033E0000701062904BF00207047016841F0010170
:1033F00001600020704700000146006841F211138F
:10340000026A1A4204D00122002081F83D20704750
:10341000026A40F244431A42F5D1026822F00102E6
:1034200002600122002081F83D20704780B590F8AD
:103430003C20012A4FF0020200F0C28080F83D20BB
:10344000D0F800C04FF67772DCF8083023EA0202A9
:10345000CCF808200B684F2B28DC1F2B44DD202BD9
:1034600045D0302B43D0402B40F0AC80D1F804E065
:10347000C968DCF82030DCF8202022F00102CCF80A
:103480002020DCF8182022F0F00242EA011123F09B
:103490000A0242EA0E02CCF81810CCF82020DCF820
:1034A000081041F0470121F0300180E06F2B27DD4B
:1034B000B3F5005F48D0B3F5805F7AD0702B40F051
:1034C0008180D1E901E3C968DCF8082043EA0E03F2
:1034D00022F47F4243EA01211143CCF80810DCF8C2
:1034E000081041F0770162E00BB1102B6AD1DCF8D3
:1034F000081021F07001194341F0070157E000BFA7
:10350000502B35D0602B5DD1D1F804E0C968DCF8D0
:103510002030DCF8202022F01002CCF82020DCF84B
:10352000182022F4704242EA013123F0A00242EA5C
:103530000E12CCF81810CCF82020DCF8081041F05E
:10354000670121F0100132E0D1E901E3C968DCF83C
:10355000082043EA0E0322F47F4243EA012111438B
:10356000CCF80810DCF8081041F480411FE000BFDF
:10357000D1F804E0C968DCF82030DCF8202022F023
:103580000102CCF82020DCF8182022F0F00242EAF8
:10359000011123F00A0242EA0E02CCF81810CCF80E
:1035A0002020DCF8081041F0570121F02001CCF870
:1035B00008100022012180F83D10002180F83C1005
:1035C000104680BD0122F5E77047000070B5044643
:1035D0000068C5680669B10716D515F0020113D059
:1035E0006FF002010161012121778069800703D01A
:1035F0002046FFF7E9FF05E0204600F08FF820465F
:1036000000F08EF800202077700719D515F004001F
:1036100016D020686FF004010161022121778069D2
:1036200010F4407F04D02046FFF7CEFF06E000BF35
:10363000204600F073F8204600F072F80020207752
:10364000300717D515F0080014D020686FF0080176
:10365000016104212177C069800703D02046FFF76C
:10366000B3FF05E0204600F059F8204600F058F876
:1036700000202077F00619D515F0100016D020682C
:103680006FF01001016108212177C06910F4407FBB
:1036900004D02046FFF798FF06E000BF204600F068
:1036A0003DF8204600F03CF800202077F00718BFD6
:1036B00015F0010002D1300609D412E020686FF045
:1036C00001010161204600F02DF8300609D515F002
:1036D000800006D020686FF0800101612046FFF76E
:1036E00089FD700609D515F0400006D020686FF0FE
:1036F00040010161204600F017F8B00658BF70BDC8
:1037000015F0200008D021686FF0200220460A61E1
:10371000BDE87040FFF770BD70BD0000704700004D
:1037200070470000704700007047000070470000BD
:1037300070470000B0B582B0044600680168C368F5
:10374000426901F02F05202D03F0200506D12DB18F
:10375000204602B0BDE8B04000F016BD5FEA017C33
:103760001EBF02F0010E03F4907212EB0E0255D14F
:10377000226B012A05D111F0100218BF13F01002BC
:1037800036D10A0622D513F080021FD094F84110DA
:10379000212941D1A168B1F5805F03D121690029B8
:1037A00000F08082216A4A1C226209784160E18C23
:1037B00001390A04E1842FD1C16821F08001C16080
:1037C000C16841F04001C16002B0B0BD490623D5D7
:1037D00013F0400120D0C16821F04001C1602021D8
:1037E000204684F8411002B0BDE8B04000F0EEBAC7
:1037F000002101910168019141680191019941699C
:10380000490600F18D80A18DE28DE38D002B1CBF58
:10381000891A5FEA01420CD102B0B0BDCA0718BFD5
:1038200013F4807240F036814A0700F139813EE19D
:10383000206850E8030F226820F4907042E80303E8
:10384000DBB1206850E8030F226820F4907042E852
:10385000030393B1206850E8030F226820F49070AE
:1038600042E803034BB1206850E8030F226820F4BC
:10387000907042E80303002BDAD1206850E8050F6E
:10388000226820F0010042E80503DBB1206850E81F
:10389000050F226820F0010042E8050393B120687B
:1038A00050E8050F226820F0010042E805034BB103
:1038B000206850E8050F226820F0010042E8050367
:1038C000002BDAD1202084F84200002020632068F9
:1038D00050E8030F226820F0100042E80303DBB138
:1038E000206850E8030F226820F0100042E803032C
:1038F00093B1206850E8030F226820F0100042E8DE
:1039000003034BB1206850E8030F226820F0100039
:1039100042E80303002BDAD1022289B2A3E100BFFF
:10392000E26B11684B68A58D99B2002900F0928175
:10393000A94280F08F81E385D169B1F5807F00F0E5
:103940009D8050E8030F216820F4807041E8030255
:10395000E2B1206850E8030F216820F4807041E84C
:1039600003029AB1206850E8030F216820F48070A8
:1039700041E8030252B1206850E8030F216820F4A7
:10398000807041E803020AB12068DAE7206850E855
:10399000050F216820F0010041E80502BAB3206854
:1039A00050E8050F216820F0010041E8050272B3DC
:1039B000206850E8050F216820F0010041E8050269
:1039C0002AB3206850E8050F216820F0010041E883
:1039D0000502002ADAD11AE0206850E8050F2168B4
:1039E00020F0400041E80502DAB1206850E8050FF8
:1039F000216820F0400041E8050292B1206850E8BB
:103A0000050F216820F0400041E805024AB1206816
:103A100050E8050F216820F0400041E80502002A27
:103A2000DAD1202084F8420000202063206850E88A
:103A3000030F216820F0100041E80302DAB120688A
:103A400050E8030F216820F0100041E8030292B112
:103A5000206850E8030F216820F0100041E80302BD
:103A60004AB1206850E8030F216820F0100041E8B7
:103A70000302002ADAD1E06BFCF7FAFF0220606350
:103A8000A08DE18D401A81B2204602B0BDE8B04061
:103A9000FFF74CBE626C42F0010262644A0706D531
:103AA000BEF1000F03D0626C42F0020262648A072A
:103AB00006D5BEF1000F03D0626C42F004026264CE
:103AC000BCF1000F06D555EA0E0203D0626C42F03D
:103AD00008026264626C002A3FF49EAE11F020017D
:103AE00018BF002D03D0204600F04EFB206841692E
:103AF000626C01F0400102F00802891800F0A28017
:103B000050E8030F216820F4907041E80302C2B32B
:103B1000206850E8030F216820F4907041E8030208
:103B20007AB3206850E8030F216820F4907041E8D0
:103B3000030232B3206850E8030F216820F490702C
:103B400041E80302EAB12068DAE700BF206850E8E4
:103B5000050F216820F0010041E80502DAB1206874
:103B600050E8050F216820F0010041E8050292B1FC
:103B7000206850E8050F216820F0010041E80502A7
:103B80004AB1206850E8050F216820F0010041E8A3
:103B90000502002ADAD1206B012824D1206850E8E0
:103BA000030F216820F0100041E80302DAB1206819
:103BB00050E8030F216820F0100041E8030292B1A1
:103BC000206850E8030F216820F0100041E803024C
:103BD0004AB1206850E8030F216820F0100041E846
:103BE0000302002ADAD1202084F84200002020635A
:103BF0002068416949064FD550E8050F216820F03B
:103C0000400041E80502AAB3206850E8050F21688A
:103C100020F0400041E8050262B3206850E8050F3B
:103C2000216820F0400041E805021AB3206850E8FE
:103C3000050F216820F0400041E80502D2B120685C
:103C4000DAE700BF2046FFF773FD0020606402B092
:103C5000B0BD00BF8D427FF4DFADD069B0F5807F8D
:103C60007FF4DAAD02222046626302B0BDE8B040C4
:103C7000FFF75CBDE06B78B144F27D11C0F6000146
:103C80000165FCF73FFF00283FF4C6ADE06B016D16
:103C900002B0BDE8B0400847204602B0BDE8B040E1
:103CA000FFF746BD216A31F8022B6FF35F224260B5
:103CB00021627CE5002804BF0120704710B504464E
:103CC00090F8410028B9002084F84000204600F018
:103CD00021F8242084F841002068C16821F40051B3
:103CE000C160204600F0D0FA2068016921F49041BB
:103CF0000161416921F02A014161C16841F400512B
:103D0000C16000202021606484F8411084F84210D2
:103D1000606310BD2DE9F04385B0006844F20045B2
:103D2000C4F20005A84203D005B0BDE8F08300BF8F
:103D3000002643F630000096C4F2020001696C468A
:103D400041F40031016101694FF0020801F40031D2
:103D500000910099009601684FF0030941F00101BC
:103D600001600168072701F00101009100990096A8
:103D7000016841F0080101600068214600F0080078
:103D8000009000980420009005F5DE30CDE9018612
:103D9000CDF80C900497FDF7BDF84020CDE9000860
:103DA00005F5E4302146CDE902690497FDF7B2F844
:103DB000262000210122FDF757FD2620FDF744FDB6
:103DC00005B0BDE8F08300007047000070470000B8
:103DD000FEE7000010B584B00446006881680391D6
:103DE00094F84110042935D10399C90716D04168C8
:103DF000490613D5C168E26A22F8021BE262618EAD
:103E000001396186618E49B9416821F060014160E4
:103E1000012084F841002046FDF7A6FC03984006E7
:103E200018D520684168890614D5416821F06001E1
:103E3000416000210291C16802918068029002985D
:103E4000012084F84100606C40F00200606420466C
:103E5000FDF77AFB94F84100032817D103988007F7
:103E60000DD520684168090609D5616A31F8022B31
:103E7000C2606162618D01396185618DF1B1039824
:103E8000000703D520684168890601D404B010BD3D
:103E9000416821F0A00141600021019180680190FA
:103EA0000198012084F84100606C40F00401204634
:103EB000616404B0BDE81040FDF746BB416821F0E5
:103EC000A0014160012084F841002046FDF74EFC2E
:103ED00003980007DAD5D5E780B543F2C85040F221
:103EE0000801C2F20000C2F20001002200F0D8FE78
:103EF000002818BFFCF72AFB43F2C85040F2280103
:103F0000C2F20000C2F2000101F030F9002818BF2F
:103F1000FCF71CFB43F2C85040F2C401C2F200009F
:103F2000C2F2000100F0DCFB002818BFFCF70EFB1A
:103F300043F2C850C2F2000001F042F9002808BF65
:103F400080BDBDE88040FCF701BB0000FEE700003B
:103F5000FEE7000043F6E810C2F20000FDF76EBE77
:103F60007047000070470000FDF702BCB0B592B08A
:103F7000002443F64000CDE90A44CDE90844059405
:103F8000CDE90344CDE901440094C4F20200016884
:103F9000022541F080510160006800F080500090DF
:103FA000009847F200000094C4F20000016841F458
:103FB00080410160006800F480400090009801207A
:103FC00006904FF4803007904FF480000D90082049
:103FD0000E904FF4A870CDE90F050720119006A8A8
:103FE0000C95FEF7A7FE18B172B600BFFEE700BF42
:103FF0000F20CDE901054FF4A05004904FF48050FC
:10400000059001A805210394FEF780FD10B172B65A
:10401000FEE700BF12B0B0BD4EF68850CEF20000F1
:10402000016841F4700101607047000040F25C10CB
:10403000C2F20000FFF7CABAB0B540F6FF3E05680D
:10404000C4F2000E40F2004C7045C4F2010C27DCB3
:10405000B0F1804F31D040F20043C4F200039842E7
:104060002BD040F60003C4F20003984225D041F65D
:10407000FF73C4F2000398422ADC70453CDCB0F1C7
:10408000804F5FD040F20043C4F20003984259D001
:1040900040F60003C4F20003984253D057E000BF3B
:1040A00040F60043C4F20003984206D0604504D0B5
:1040B0000023C4F201039842D9D14B6825F0700265
:1040C00043EA020541F6FF73C4F200039842D4DDCF
:1040D00043F6FF73C4F20103984221DC42F200036D
:1040E000C4F2000398422DD00023C4F20103984289
:1040F00028D0604526D02AE040F60043C4F20003F1
:1041000098421FD041F60003C4F20003984219D030
:1041100041F60043C4F20003984213D017E000BFF9
:1041200044F20003C4F2010398420BD044F60003AA
:10413000C4F20103984205D044F20043C4F20103E3
:10414000984204D1CB6825F4407243EA02050A681C
:104150008C684B69C46240F480648262644504BF29
:1041600009690163026825F0800142F004021943E5
:104170000260012242610160B0BD0000806B00213D
:10418000C185FFF7D5BA000081B090F8421022290E
:1041900020D18368B3F5805F08D10169002965D01B
:1041A00000F128010A6803685B680AE0014651F8DB
:1041B000282F13B90369002BF5D003685B6803F05F
:1041C0007F0313700A6801320A60C18D01390A0445
:1041D000C18501D001B070470168CA6822F0200291
:1041E000CA60CA6822F48072CA604A6922F0010279
:1041F0004A61202280F8422000224263036B012B97
:104200003ED1026351E8031F026821F0100142E829
:1042100003130168DBB151E8031F026821F01001AC
:1042200042E80313016893B151E8031F026821F0CB
:10423000100142E8031301684BB151E8031F026803
:1042400021F0100142E803130168002BDAD10A685B
:10425000D20606D5002200920A68009249680091B1
:104260000099818D01B0FFF761BA00BF0168826AD1
:1042700049686FF35F2122F8021B8262A5E700BF45
:1042800001B0FFF7A1BD000010B504460068D4E9F5
:1042900002C22369016921F440511143016162693D
:1042A00043EA0C01E3691143C268194349F20C6304
:1042B0009A431143C1604169A26921F4407141F2FE
:1042C0000043114340F48062C4F201039A42416109
:1042D00002D1FEF7E5FC01E0FEF7CEFCE169636880
:1042E0001922B1F5004FA0FB02011FD15A00DB0FCC
:1042F000FBF7BAFF48F21F51C5F2EB11A0FB0123F7
:104300005A096FF0630302FB0300322303EBC00082
:10431000A0FB01014FF4F87000EA111000EB02104D
:10432000C1F3421108442168886010BD9A009B0FB8
:10433000FBF79AFF48F21F51C5F2EB11A0FB0123D6
:104340005A096FF0630302FB0300322303EB0010F2
:10435000A0FB0101F02000EA511000EB0210C1F3B4
:10436000431108442168886010BD000043F62470A2
:10437000C2F20000FFF7DEB9B0B5D0F8D42200EBEE
:104380008202D2F8C0323BB301F00F058C4605EB38
:10439000850100EB810151F8144F64B1D0F8C8E2F7
:1043A00005EBC5050EEB8505D5F81CE0B4FBFEF565
:1043B00005FB1E4595B10024C3F81442D2F8C4028F
:1043C000056935B1D3F8080203F504716246A847C0
:1043D00000242046B0BD00BF0320B0BD00240C6007
:1043E00061460022002300F0A3FE2046B0BD00007D
:1043F000B0B50446D0F8D40204EB8000D0F8C05227
:1044000095B1204600F036FDD4F8D412C5F80C0260
:1044100004EB8101D1F8C412D5F80402CA6805F58D
:10442000037190470020B0BD0320B0BD70B581215D
:10443000044600F05DFC00252046012184F8375039
:1044400000F056FC2046822184F8775100F050FCA1
:10445000D4F8D40284F84B5004EB8000D0F8C0129A
:10446000656489B1D0F8C40240688047D4F8D402AA
:1044700004F5307656F8200001F066F9D4F8D4023D
:1044800046F82050C4F8BC52002070BD10B5D0F8DA
:10449000D41200EB8100D0F8C0428CB1D0F8C41225
:1044A00081B194F80002FF280CD08B6894F80122A7
:1044B00021469847FF2084F80002002010BD00BF6D
:1044C000032010BD002010BD014640F2A4000A22C6
:1044D000C2F200000A807047F0B581B040F2600778
:1044E000C2F2000704463846822100F03BFB064634
:1044F0003846012100F036FB05463846812100F0A0
:1045000031FB002E1CBF1021B171002D1CBF4021BA
:10451000A98000281CBF40218180432140F2600017
:10452000C2F20000218001B0F0BD0000F0B581B002
:1045300040F26007C2F2000704463846822100F0CC
:1045400011FB06463846012100F00CFB05463846B3
:10455000812100F007FB002E1CBF1021B171002D3E
:104560001CBF4FF40071A98000281CBF4FF40071DC
:104570008180432140F26000C2F20000218001B03E
:10458000F0BD0000F0B581B040F26007C2F2000754
:1045900004463846822100F0E5FA064638460121F5
:1045A00000F0E0FA05463846812100F0DBFA002EE3
:1045B0001CBF1021B171002D1CBF4021A980002813
:1045C0001CBF40218180432140F26000C2F2000004
:1045D000218001B0F0BD00002DE9F04104464FF408
:1045E000077001F0B3F800284CD04FF4077105466E
:1045F000FBF7B2FED4F8D402402704EB8000C0F8E9
:10460000C052207CC4F8BC52002808BF4FF4007789
:104610002046812102223B46022600F09DFC4FF0FD
:1046200001082046012102223B4684F8378000F031
:1046300093FC10206064204682210322082384F822
:10464000778100F089FCD4F8D4020027C5F8047201
:1046500004EB8000D0F8C40284F84B8000688047E7
:10466000C5F81472C5F81872D5F804223AB1207C46
:1046700090B120460121402300F082FC0026304604
:10468000BDE8F081D4F8D402002104EB8000C0F82A
:10469000C0120220BDE8F081204601214FF40073D2
:1046A00000F06EFC0020BDE8F081000080B5D0F87D
:1046B000D41200EB8101D1F8C01279B190F810C08A
:1046C000D1F8042240230121BCF1000F08BF4FF4B0
:1046D000007300F055FC002080BD00BF032080BDAA
:1046E00000290FBF0320D0F8D42200EB8200C0F8CD
:1046F000C41218BF00207047D0F8D42200EB82000B
:10470000D0F8C00200280EBF0320C0F80412002019
:1047100070470000D0F8D43200EB8300D0F8C0021C
:1047200000280FBF0320C0F80812C0F81022002094
:104730007047000070B582B00446D0F8D4020D4630
:1047400004EB8000D0F8C06200218DF80710ADF8AE
:104750000410CEB1297811F0600219D0202A5FD15F
:10476000EA88002A2CD0090636D46878314686F8C3
:1047700000022046402A28BF402286F8012200F08D
:10478000A1F8002618E000BF0326304602B070BD35
:1047900068780B2844D80026DFE800F0060E424275
:1047A0004242424242422C3A94F89C02032837D1BA
:1047B00001A92046022225E0304602B070BD00BFAC
:1047C000D0F8C402294683686878002200269847FA
:1047D000304602B070BD00BFD0F8C40231468368D5
:1047E00068789847EA8820463146072A28BF07227A
:1047F00008E000BF94F89C02032811D10DF10701D5
:104800002046012200F07AF80026304602B070BD42
:1048100094F89C02032803D10026304602B070BDF4
:104820002046294600F042F80326304602B070BD0B
:1048300080B5D0F8D41200EB8101D1F8C0223AB192
:10484000D2F8141200294FF0010103D0084680BDB0
:10485000032080BDC2F81412D2F81032D2F8082218
:104860008121836200F064FC0021084680BD0000C5
:1048700080B5D0F8B82252689047002818BF0320AE
:1048800080BD0000002070470020704780B51346AF
:104890000A46002100F074FB002080BD80B513465D
:1048A0000A46002100F044FC002080BD10B58021A4
:1048B000044600F00BFC20460021BDE8104000F04B
:1048C00005BC000080B513460A460321C0F89412C7
:1048D0000021C0F86421C0E9553300F051FB0020ED
:1048E00080BD000080B50521C0F89412002100228F
:1048F000002300F045FB002080BD000080B513467A
:104900000A460221C0F8941200214262C0E9053330
:1049100000F00EFC002080BD80B50421C0F8941288
:1049200000210022002300F003FC002080BD0000D5
:1049300010B540F2A814C2F200040A4602A02146B3
:1049400000F030F9204610BD43444320436F6E66AB
:104950006967000040F2B0001222C2F200000A8033
:104960007047000010B540F2A814C2F200040A46D5
:1049700002A0214600F016F9204610BD4344432012
:10498000496E7465726661636500000040F2D8008C
:104990000422C2F200000A807047000010B540F205
:1049A000A814C2F200040A4602A0214600F0FAF858
:1049B000204610BD53544D6963726F656C65637416
:1049C000726F6E696373000010B540F2A814C2F2F2
:1049D00000040A4602A0214600F0E4F8204610BD7B
:1049E00053544D3332205669727475616C20436F95
:1049F0006D506F7274000000B0B547F61020C1F61C
:104A0000FF70026883684FF01A0C9B18A1F800C071
:104A100000F0A3804FF0370C1A0F0CEB13714068B5
:104A2000B3F1204F38BF02F1300140F2DC02C2F294
:104A30000002917019014FF0000E0CEB117582F815
:104A400003E0C3F30364B1F1204F38BF04F1300534
:104A5000190215710CEB117582F805E0C3F30354CC
:104A6000B1F1204F38BF04F13005190395710CEBFB
:104A7000117582F807E0C3F30344B1F1204F38BF4A
:104A800004F13005190415720CEB117582F809E078
:104A9000C3F30334B1F1204F38BF04F130051905D9
:104AA00095720CEB117582F80BE0C3F30324B1F19E
:104AB000204F38BF04F1300519061573C3F30314F2
:104AC0000CEB1175B1F1204F4FEA037103F00F03A6
:104AD00082F80DE038BF04F1300503F13704957317
:104AE00082F80FE0B1F1204F38BF03F13004010F1D
:104AF0000CEB1073147482F811E0B0F1204F38BF42
:104B000001F1300301010CEB1174937482F813E08E
:104B1000C0F30363B1F1204F38BF03F13004010249
:104B20001475C0F303530CEB1174B1F1204F4FEA2D
:104B3000003182F815E038BF03F130040CEB11733B
:104B4000947582F817E0C0F30340B1F1204F38BFED
:104B500000F13003137682F819E040F2DC00C2F273
:104B60000000B0BD80B5B0F802C090F800E0F44598
:104B700016D9734650FA8EF04278052A0BD106E01A
:104B800090F800E050FA8EF04278052A03D182783E
:104B90008A4208BF80BD53FA8EF39AB26245EFD3C2
:104BA000002080BD10B5002878D0037833B300F121
:104BB000020EF4461CF8013C5BB19CF8003043B196
:104BC0009CF801302BB19CF802300CF1040C002B46
:104BD000F0D14FF0000C00BF1EF8013C93B19EF8DD
:104BE00000309BB19EF80130A3B19EF802300CF169
:104BF000040C002B0EF1040EEED10DE04FF0000C72
:104C00000AE000BF4CF0010C06E000BF4CF0020CC3
:104C100002E000BF4CF0030C5FFA8CFC022303EBB4
:104C20004C03138003220B704A7090F800E0BEF131
:104C3000000F33D0841C02224FF0000C1AE000BF9A
:104C4000101DC0B20B5440F0010001F800C06378A1
:104C5000002B08BF10BD901DC0B20B5440F00100E6
:104C600001F800C094F802E00832BEF1000F04F130
:104C7000040413D0D3B201F803E043F0010301F8B8
:104C800003C014F8013C4BB1901CC0B20B5440F06F
:104C9000010001F800C02378002BD1D110BD000025
:104CA000002804BF032070470023C0F8B832C0F8C2
:104CB000C4320029C0F8D03218BFC0F8B4120121A4
:104CC00080F89C12027000F0D9B8000080B5D0F8CE
:104CD000C802FCF7C5FE40F20032C100C0F201324A
:104CE00022FA01F1032888BF0321C8B280BD000069
:104CF00080B5D0F8C802FCF78DFE40F20032C1004A
:104D0000C0F2013222FA01F1032888BF0321C8B2A0
:104D100080BD0000B0B5044691B194F89C02032810
:104D200053D1D4F8B8024269002A4ED00020C4F80A
:104D3000D40220469047002808BF0020B0BD00BF25
:104D4000D4F89402022839D1A069218C88420FD965
:104D5000421A606AA261014420466162FFF79EFD2B
:104D6000204600210022002300F00AF926E000BFBF
:104D700010D1616981420DD3D4F89802814209D2E1
:104D80002046002100220025FFF788FDC4F8985234
:104D9000E6E700BF94F89C02032808D1D4F8B802D3
:104DA000C16821B10020C4F8D402204688472046BB
:104DB000802100F08BF92046FFF794FD94F8A002C3
:104DC00000281CBF002084F8A0020020B0BD000015
:104DD00010B5044681B194F89C02032824D1D4F87C
:104DE000B802826902B30020C4F8D402204690477A
:104DF000002808BF002010BDD4F89402032813D166
:104E0000D4F85801B4F8602190420FD9D4F8641155
:104E1000801A1144C4F85801C4F86411904288BF44
:104E200002462046FFF732FD002010BD94F89C0298
:104E3000032808D1D4F8B802016921B10020C4F8D0
:104E4000D402204688472046FFF766FD002010BDAB
:104E50000020704780B5012180F89C12D0F8B8126C
:104E600031B14A6801799047002818BF032080BDFE
:104E7000002080BDD0F8C802FCF724BE10B5017830
:104E800011B1002010BD00BF43F6E811C2F20001CD
:104E9000C1F8E004C0F8C8124FF0A0400860042038
:104EA00008714FF40070C8800220C1F80900012089
:104EB000C8810846FDF75EFB002818BFFBF746FBDC
:104EC00043F6E814C2F2000420468021FCF70AFDF4
:104ED000204600214022FCF709FD204601218022C6
:104EE000FCF704FD002010BDD0F8C80201F07F02DD
:104EF00002EBC20200EB820000F11602090658BF65
:104F000000F256221078704780B5D0F8D42200EB1A
:104F10008202D2F8B8224AB190F89C32032B02D117
:104F2000126A02B19047002080BD00BF032080BDFF
:104F300080B5D0F8D42200EB8202D2F8B8224AB170
:104F400090F89C32032B02D1526A02B190470020A4
:104F500080BD00BF032080BD80B59446D0F8C80254
:104F60001A466346FCF7B8FD40F20032C100C0F2B9
:104F7000013222FA01F1032888BF0321C8B280BDA3
:104F800080B5D0F8C802FCF7D9FD40F20032C1006C
:104F9000C0F2013222FA01F1032888BF0321C8B20E
:104FA00080BD0000F0B581B00126002580F89C622C
:104FB000C0F8945204464560D0F8B802C4F8A45230
:104FC00084F8A05258B1426842B12046002190476F
:104FD0000546002818BF032501E000BF0025204634
:104FE0000021002240234027FFF7B6FF2046802102
:104FF0000022402384F86361A4F86071FFF7ACFFDE
:1050000084F823602846278401B0F0BD90F89C12F4
:10501000042904BF90F89D1280F89C12002070476C
:1050200080B590F89C12032906D1D0F8B81219B1B6
:10503000C969002918BF8847002080BD02460020AA
:105040001174704780B5D0F8C802FDF737FC40F204
:105050000032C100C0F2013222FA01F1032888BFF8
:105060000321C8B280BD0000B0B500F2AA250446F5
:10507000284600F06FF80120C4F8940294F8AA02C0
:10508000B4F8B02200F01F010229C4F8982209D018
:1050900001290DD091B920462946BDE8B04000F065
:1050A00091B800BF20462946BDE8B04000F044BAA0
:1050B00020462946BDE8B04000F0FCBA00F080016F
:1050C0002046BDE8B04000F001B8000080B5D0F83F
:1050D000C802FCF755FD40F20032C100C0F20132B7
:1050E00022FA01F1032888BF0321C8B280BD000065
:1050F00080B5D0F8C802FDF7FDFB40F20032C100D8
:10510000C0F2013222FA01F1032888BF0321C8B29C
:1051100080BD0000014690F89C02042204281CBFB8
:1051200091F89C0281F89D02002081F89C22704732
:1051300080B5D0F8C802FCF75FFD40F20032C10034
:10514000C0F2013222FA01F1032888BF0321C8B25C
:1051500080BD00000A7802704A7842704A88428016
:105160008A888280C988C1807047000010B582B0EB
:1051700004460020ADF80600B1B1D4F8D42204F5FD
:105180002E70C4F8B81250F82200C16A21B10DF196
:1051900006008847C4F8D002D4F8D8020130C4F819
:1051A000D802002002B010BD032002B010BD0000E4
:1051B000D0F8B822002A04BF0020704712681047B8
:1051C000FFF796BFB0B582B00D460978044611F0DE
:1051D000600111D0402901D020292FD1D4F8D40268
:1051E000294604EB8000D0F8B8028268204602B05D
:1051F000BDE8B040104700BF6878092800F2D080B1
:10520000DFE800F00628CE3ACE4666CE7E9200BF9A
:1052100094F89C020138022800F2C280E888022833
:1052200040F0BE80D4F8A4020322002808BF012267
:10523000214641F80C2F2046022263E120468021BE
:10524000FFF744FF204600210025FFF73FFF2846D7
:1052500002B0B0BD94F89C020138022800F2A08090
:10526000688800250128F2D12046C4F8A452FFF72F
:1052700053FB284602B0B0BD6888022800F0868043
:10528000012840F08D800120C4F8A40240E100BF55
:10529000A888002840F08480E888002840F08080BA
:1052A00068887F2800F27C8094F89C12032900F023
:1052B0007780C5B284F89E0220462946FFF7C2FED9
:1052C0002046FFF729FB002D0CBF01200220EFE054
:1052D00068884FF0FF3101EB102100220629ADF85C
:1052E000062000F21D81DFE811F00700670075005D
:1052F0001B011B0183008F00D4F8B4020268F1E0A7
:10530000E88801284CD194F89C02411E022941D220
:105310000025214641F8085F20460122FFF7EEFAFA
:10532000284602B0B0BD00BF688840F2A415C2F2A2
:10533000000510F0FE0F28700CD020468021FFF7EA
:10534000C5FE20460021FFF7C1FE0325284602B016
:10535000B0BD00BF94F89C22C1B2032A62D0022AD9
:1053600040F08280002900F0D38020466160FFF782
:105370001FFF002800F09880054620468021FFF797
:10538000A5FE20460021FFF7A1FE67E0687984F8BA
:10539000A002BDE0032803D1211D20460122B1E077
:1053A00020468021FFF792FE204600210025FFF7CE
:1053B0008DFE284602B0B0BD217CD4F8B802002989
:1053C0000CBF816AC16A0DF10600884701460220C0
:1053D00026E000BFC0B2052800F2A280DFE800F09E
:1053E000046E72767A7E00BFD4F8B402426878E028
:1053F000207C002840F09480D4F8B802416B0DF175
:105400000600884772E000BF207C002840F08880BA
:10541000D4F8B802016B0DF1060088470146072059
:10542000487064E081B36068884271D0C1B22046A0
:10543000FFF71EFA297820466160FFF7B9FE0028C1
:1054400066D0054620468021FFF740FE2046002119
:10545000FFF73CFE21792046FFF70AFA022084F884
:105460009C02284602B0B0BD20468021FFF72EFEE8
:1054700020460021FFF72AFE29782046FFF7F8F999
:105480000325284602B0B0BD022084F89C0261606A
:10549000204600210025FFF7EBF92046FFF73CFAF4
:1054A000284602B0B0BD00BF2046FFF735FA032002
:1054B00084F89C020025284602B0B0BDD4F8B4029E
:1054C00082680EE0D4F8B402C2680AE0D4F8B402EC
:1054D000026906E0D4F8B402426902E0D4F8B402EA
:1054E0008269EAB1207C0DF1060190470146EA8805
:1054F00072B1BDF8060098B1904238BF024620460E
:10550000ADF80620FFF7FAF90025284602B0B0BD35
:105510002046FFF701FA0025284602B0B0BD00BFC3
:1055200020468021FFF7D2FD20460021FFF7CEFD67
:105530000025284602B0B0BD70B50E460978357911
:1055400011F0600104460BD0402902D0202940F020
:105550007F8020462946FFF795F9D8B1002070BD1D
:10556000707828B301283DD0032871D194F89C02AB
:1055700003283BD1708840B915F07F0005D0F08832
:1055800018B920462946FFF7A1FD2046FFF7C4F9C8
:10559000002070BDD4F8B80282680020002AC4F848
:1055A000D402DBD020463146BDE87040104700BF32
:1055B00094F89C02032827D0022808BF5FEA4560C0
:1055C00046D105F07F0000EB800004EB800000F185
:1055D00014012A0658BF00F5AA71002001F80E0F29
:1055E00062E000BF94F89C0203283BD002282FD130
:1055F00068062DD020462946FFF768FD2046802109
:10560000FFF764FD002070BD05F00F0101EB810183
:1056100015F0800004EB810114BF91F8231091F87C
:105620006311A9B105F07F0101EB810104EB810158
:1056300001F11406002808BF01F5AA7668062FD0EC
:1056400020462946FFF750FC50B3012029E000BF57
:1056500020468021FFF73AFD20460021FFF736FD66
:10566000002070BD708800287FF478AF680603D0F2
:1056700020462946FFF72AFB2046FFF74DF9204632
:105680002946FFF7FFF800287FF468AFD4F8B80286
:1056900082680020002AC4F8D4027FF483AF5DE75B
:1056A000002006F10E01B07320460222FFF726F912
:1056B000002070BDB0B50D460978044611F06001B8
:1056C00018BF402914D194F89C020138022803D84D
:1056D000A88810F0FE0F19D020468021FFF7F6FCB5
:1056E000204600210025FFF7F1FC2846B0BD00BF91
:1056F0002029E8D020468021FFF7E8FC2046002141
:105700000025FFF7E3FC2846B0BD00BFC1B220462C
:10571000FFF7BAF810B10320B0BD00BFD4F8B8024B
:105720008268002AF7D00020C4F8D4022046294617
:105730009047E9880546002908BF002DE3D120469F
:10574000FFF7EAF80020B0BD7047000040F2A83033
:10575000C2F200007047000080B54B780A78012B38
:1057600002F00F031CD14FF0010CD0F81CE80CFA2A
:1057700003F343EA0E03C0F81C3800EB4210D0F8E4
:1057800000391B042BD48B6800F5106091F804C01D
:1057900001686FF3DF2343EA8C4341EA825118E04A
:1057A0004FF4803CD0F81CE80CFA03F343EA0E03F4
:1057B000C0F81C3800EB4210D0F8002B12040ED4B5
:1057C0008A6800F5306009796FF3DF22036842EAE6
:1057D0008141194341F0805141F4004101600020B2
:1057E00080BD00000146D0F8000940F2FF729043EE
:1057F000C1F80009D1F8040840F480720020C1F813
:105800000428704782B002F47F42B2F5807F40F0F6
:105810009980826B4FF6BF7322F480328263C26834
:10582000CFF6BD731A40C260029BC268DBB222F49D
:105830004012012BC26003D1C26842F48012C260E0
:1058400000220092009A01320092009AB2F1706F29
:1058500000F2F0800269002A21D4009A01320092FD
:10586000009AB2F1706F00F2E5800269002A16D446
:10587000009A01320092009AB2F1706F00F2DA8061
:105880000269002A0BD4009A01320092009AB2F108
:10589000706F00F2CF800269B2F1FF3FD2DC0A22C2
:1058A0000092009AAAB100BF009A013A0092009AB1
:1058B0007AB1009A013A0092009A52B1009A013AE4
:1058C0000092009A2AB1009A013A0092009A002AA6
:1058D000EAD1026942F001020261009A01320092AB
:1058E000009AB2F1706F00F2A5800269D20720D051
:1058F000009A01320092009AB2F1706F00F29A8021
:105900000269D20715D0009A01320092009AB2F1D2
:10591000706F00F28F800269D2070AD0009A0132BC
:105920000092009AB2F1706F00F284800269D2078F
:10593000D3D14FF0000C01F47F01B1F5803F40F06E
:1059400099808FE0C26842F04002C260002201925A
:10595000019A01320192019AB2F1706F72D8026914
:10596000002A1ED4019A01320192019AB2F1706F9D
:1059700068D80269002A14D4019A01320192019A6E
:10598000B2F1706F5ED80269002A0AD4019A01321E
:105990000192019AB2F1706F54D80269B2F1FF3FDF
:1059A000D6DC0A220192019AAAB100BF019A013AFB
:1059B0000192019A7AB1019A013A0192019A52B187
:1059C000019A013A0192019A2AB1019A013A01928F
:1059D000019A002AEAD1026942F001020261019AA9
:1059E00001320192019AB2F1706F2BD80269D2078D
:1059F0001DD0019A01320192019AB2F1706F21D843
:105A00000269D20713D0019A01320192019AB2F1D0
:105A1000706F17D80269D20709D0019A013201923A
:105A2000019AB2F1706F0DD80269D207D7D14FF049
:105A3000000C09E04FF0030C01F47F01B1F5803F49
:105A400018D10FE04FF0030C826B13F47F4F14BF9B
:105A500022F4803242F48032826301F47F01B1F596
:105A6000803F07D1816841F006018160816841F083
:105A700020018160604602B07047000080B54B781D
:105A80000A78012B2AD100EB4211D1F8003947F6F0
:105A9000000CCEF6334C01F51061002B4FF0010ED7
:105AA00007D50B6843F000630B600B6843F080433D
:105AB0000B6002F00F02D0F83C380EFA02F293436A
:105AC000C0F83C38D0F81C3823EA0202C0F81C2881
:105AD000086800EA0C0200200A6080BD00EB421357
